{
  "contractName": "AnimalNft",
  "abi": [
    {
      "inputs": [],
      "stateMutability": "nonpayable",
      "type": "constructor"
    },
    {
      "anonymous": false,
      "inputs": [
        {
          "indexed": true,
          "internalType": "address",
          "name": "from",
          "type": "address"
        },
        {
          "indexed": true,
          "internalType": "address",
          "name": "to",
          "type": "address"
        },
        {
          "indexed": true,
          "internalType": "uint256",
          "name": "tokenId",
          "type": "uint256"
        }
      ],
      "name": "Transfer",
      "type": "event"
    },
    {
      "inputs": [
        {
          "internalType": "address",
          "name": "owner_",
          "type": "address"
        }
      ],
      "name": "balanceOf",
      "outputs": [
        {
          "internalType": "uint256",
          "name": "",
          "type": "uint256"
        }
      ],
      "stateMutability": "view",
      "type": "function",
      "constant": true
    },
    {
      "inputs": [],
      "name": "name",
      "outputs": [
        {
          "internalType": "string",
          "name": "",
          "type": "string"
        }
      ],
      "stateMutability": "view",
      "type": "function",
      "constant": true
    },
    {
      "inputs": [
        {
          "internalType": "uint256",
          "name": "tokenId_",
          "type": "uint256"
        }
      ],
      "name": "ownerOf",
      "outputs": [
        {
          "internalType": "address",
          "name": "",
          "type": "address"
        }
      ],
      "stateMutability": "view",
      "type": "function",
      "constant": true
    },
    {
      "inputs": [
        {
          "internalType": "bytes4",
          "name": "interfaceId_",
          "type": "bytes4"
        }
      ],
      "name": "supportsInterface",
      "outputs": [
        {
          "internalType": "bool",
          "name": "",
          "type": "bool"
        }
      ],
      "stateMutability": "view",
      "type": "function",
      "constant": true
    },
    {
      "inputs": [],
      "name": "symbol",
      "outputs": [
        {
          "internalType": "string",
          "name": "",
          "type": "string"
        }
      ],
      "stateMutability": "view",
      "type": "function",
      "constant": true
    },
    {
      "inputs": [
        {
          "internalType": "uint256",
          "name": "index_",
          "type": "uint256"
        }
      ],
      "name": "tokenByIndex",
      "outputs": [
        {
          "internalType": "uint256",
          "name": "",
          "type": "uint256"
        }
      ],
      "stateMutability": "view",
      "type": "function",
      "constant": true
    },
    {
      "inputs": [
        {
          "internalType": "address",
          "name": "owner_",
          "type": "address"
        },
        {
          "internalType": "uint256",
          "name": "index_",
          "type": "uint256"
        }
      ],
      "name": "tokenOfOwnerByIndex",
      "outputs": [
        {
          "internalType": "uint256",
          "name": "",
          "type": "uint256"
        }
      ],
      "stateMutability": "view",
      "type": "function",
      "constant": true
    },
    {
      "inputs": [],
      "name": "totalSupply",
      "outputs": [
        {
          "internalType": "uint256",
          "name": "",
          "type": "uint256"
        }
      ],
      "stateMutability": "view",
      "type": "function",
      "constant": true
    },
    {
      "inputs": [
        {
          "internalType": "string",
          "name": "_animalUrl",
          "type": "string"
        }
      ],
      "name": "mint",
      "outputs": [],
      "stateMutability": "nonpayable",
      "type": "function"
    },
    {
      "inputs": [],
      "name": "getAnimalsNft",
      "outputs": [
        {
          "internalType": "string[]",
          "name": "",
          "type": "string[]"
        }
      ],
      "stateMutability": "view",
      "type": "function",
      "constant": true
    }
  ],
  "bytecode": "0x60806040523480156200001157600080fd5b506040518060400160405280601081526020017f4d6f68616d656420456c736865726966000000000000000000000000000000008152506040518060400160405280600981526020017f53796d626f6c4e66740000000000000000000000000000000000000000000000815250816001908051906020019062000096929190620002fd565b508060029080519060200190620000af929190620002fd565b50620001037f13b182f4c0e5b2efbac0efe6cf6d756c8b89f4b79c5707a043ed9ea740574ee97f7feaf19471f34a12a7eaf32d5f3090aa2260ea8624dc8a138e74e0bf0f623076186200022660201b60201c565b50506200017a7f788a4fc15f9fd369182fc5f237bcaed2191ad11e7df20b6abe14d3e0b1f3211d7f3a6eb71757dfc6e784c1459d26270140c2c147d95ca985c80026fc5301c3eca17f8a7e378434598edc36d108689a030cbc9d7d465de4f74c71bae1028eed6a881b18186200022660201b60201c565b620001cd7f6da5e1284143cdd2d15038a59bde3be031250f00291d64494c12d967b3a4e0c37fc53637662700e6c65104059db8bba34439e0c32483ab7c34e3ccae52c7395495186200022660201b60201c565b620002207fee248c18f03aac6666c8d5b779b4fb22b37bf52b0c0313a70ad92a8c13245c4f7fb05886cd20020b72125e5d74b8ac3eaf5331cc69e21e9118504e2f816ee10f53186200022660201b60201c565b62000494565b63ffffffff60e01b817bffffffffffffffffffffffffffffffffffffffffffffffffffffffff19160362000291576040517f08c379a000000000000000000000000000000000000000000000000000000000815260040162000288906200040e565b60405180910390fd5b6001600080837bffffffffffffffffffffffffffffffffffffffffffffffffffffffff19167bffffffffffffffffffffffffffffffffffffffffffffffffffffffff1916815260200190815260200160002060006101000a81548160ff02191690831515021790555050565b8280546200030b906200045f565b90600052602060002090601f0160209004810192826200032f57600085556200037b565b82601f106200034a57805160ff19168380011785556200037b565b828001600101855582156200037b579182015b828111156200037a5782518255916020019190600101906200035d565b5b5090506200038a91906200038e565b5090565b5b80821115620003a95760008160009055506001016200038f565b5090565b600082825260208201905092915050565b7f496e76616c696420496e74657266616365204944000000000000000000000000600082015250565b6000620003f6601483620003ad565b91506200040382620003be565b602082019050919050565b600060208201905081810360008301526200042981620003e7565b9050919050565b7f4e487b7100000000000000000000000000000000000000000000000000000000600052602260045260246000fd5b600060028204905060018216806200047857607f821691505b6020821081036200048e576200048d62000430565b5b50919050565b61157c80620004a46000396000f3fe608060405234801561001057600080fd5b506004361061009e5760003560e01c80636352211e116100665780636352211e1461016f57806370a082311461019f57806395d89b41146101cf578063d85d3d27146101ed578063dd1199cf146102095761009e565b806301ffc9a7146100a357806306fdde03146100d357806318160ddd146100f15780632f745c591461010f5780634f6ccce71461013f575b600080fd5b6100bd60048036038101906100b89190610c1d565b610227565b6040516100ca9190610c65565b60405180910390f35b6100db61028e565b6040516100e89190610d19565b60405180910390f35b6100f9610320565b6040516101069190610d54565b60405180910390f35b61012960048036038101906101249190610df9565b61032d565b6040516101369190610d54565b60405180910390f35b61015960048036038101906101549190610e39565b610393565b6040516101669190610d54565b60405180910390f35b61018960048036038101906101849190610e39565b610404565b6040516101969190610e75565b60405180910390f35b6101b960048036038101906101b49190610e90565b61048a565b6040516101c69190610d54565b60405180910390f35b6101d7610541565b6040516101e49190610d19565b60405180910390f35b61020760048036038101906102029190610ff2565b6105d3565b005b6102116106d6565b60405161021e9190611147565b60405180910390f35b6000806000837bffffffffffffffffffffffffffffffffffffffffffffffffffffffff19167bffffffffffffffffffffffffffffffffffffffffffffffffffffffff1916815260200190815260200160002060009054906101000a900460ff169050919050565b60606001805461029d90611198565b80601f01602080910402602001604051908101604052809291908181526020018280546102c990611198565b80156103165780601f106102eb57610100808354040283529160200191610316565b820191906000526020600020905b8154815290600101906020018083116102f957829003601f168201915b5050505050905090565b6000600580549050905090565b6000600660008473ffffffffffffffffffffffffffffffffffffffff1673ffffffffffffffffffffffffffffffffffffffff16815260200190815260200160002082815481106103805761037f6111c9565b5b9060005260206000200154905092915050565b600061039d610320565b82106103de576040517f08c379a00000000000000000000000000000000000000000000000000000000081526004016103d590611244565b60405180910390fd5b600582815481106103f2576103f16111c9565b5b90600052602060002001549050919050565b600061040f826107af565b1561044f576040517f08c379a0000000000000000000000000000000000000000000000000000000008152600401610446906112b0565b60405180910390fd5b6003600083815260200190815260200160002060009054906101000a900473ffffffffffffffffffffffffffffffffffffffff169050919050565b60008073ffffffffffffffffffffffffffffffffffffffff168273ffffffffffffffffffffffffffffffffffffffff16036104fa576040517f08c379a00000000000000000000000000000000000000000000000000000000081526004016104f1906112b0565b60405180910390fd5b600460008373ffffffffffffffffffffffffffffffffffffffff1673ffffffffffffffffffffffffffffffffffffffff168152602001908152602001600020549050919050565b60606002805461055090611198565b80601f016020809104026020016040519081016040528092919081815260200182805461057c90611198565b80156105c95780601f1061059e576101008083540402835291602001916105c9565b820191906000526020600020905b8154815290600101906020018083116105ac57829003601f168201915b5050505050905090565b600a816040516105e3919061130c565b908152602001604051809103902060009054906101000a900460ff161561063f576040517f08c379a000000000000000000000000000000000000000000000000000000000815260040161063690611395565b60405180910390fd5b60098190806001815401808255809150506001900390600052602060002001600090919091909150908051906020019061067a929190610b0e565b506000600160098054905061068f91906113e4565b90506001600a836040516106a3919061130c565b908152602001604051809103902060006101000a81548160ff0219169083151502179055506106d23382610820565b5050565b60606009805480602002602001604051908101604052809291908181526020016000905b828210156107a657838290600052602060002001805461071990611198565b80601f016020809104026020016040519081016040528092919081815260200182805461074590611198565b80156107925780601f1061076757610100808354040283529160200191610792565b820191906000526020600020905b81548152906001019060200180831161077557829003601f168201915b5050505050815260200190600101906106fa565b50505050905090565b6000806003600084815260200190815260200160002060009054906101000a900473ffffffffffffffffffffffffffffffffffffffff169050600073ffffffffffffffffffffffffffffffffffffffff168173ffffffffffffffffffffffffffffffffffffffff1614915050919050565b61082a8282610841565b61083381610a01565b61083d8282610a4a565b5050565b600073ffffffffffffffffffffffffffffffffffffffff168273ffffffffffffffffffffffffffffffffffffffff16036108b0576040517f08c379a00000000000000000000000000000000000000000000000000000000081526004016108a790611464565b60405180910390fd5b6108b9816107af565b6108f8576040517f08c379a00000000000000000000000000000000000000000000000000000000081526004016108ef906114d0565b60405180910390fd5b816003600083815260200190815260200160002060006101000a81548173ffffffffffffffffffffffffffffffffffffffff021916908373ffffffffffffffffffffffffffffffffffffffff1602179055506001600460008473ffffffffffffffffffffffffffffffffffffffff1673ffffffffffffffffffffffffffffffffffffffff168152602001908152602001600020600082825461099a91906114f0565b92505081905550808273ffffffffffffffffffffffffffffffffffffffff16600073ffffffffffffffffffffffffffffffffffffffff167fddf252ad1be2c89b69c2b068fc378daa952ba7f163c4a11628f55a4df523b3ef60405160405180910390a45050565b6005805490506007600083815260200190815260200160002081905550600581908060018154018082558091505060019003906000526020600020016000909190919091505550565b600660008373ffffffffffffffffffffffffffffffffffffffff1673ffffffffffffffffffffffffffffffffffffffff168152602001908152602001600020805490506008600083815260200190815260200160002081905550600660008373ffffffffffffffffffffffffffffffffffffffff1673ffffffffffffffffffffffffffffffffffffffff1681526020019081526020016000208190806001815401808255809150506001900390600052602060002001600090919091909150555050565b828054610b1a90611198565b90600052602060002090601f016020900481019282610b3c5760008555610b83565b82601f10610b5557805160ff1916838001178555610b83565b82800160010185558215610b83579182015b82811115610b82578251825591602001919060010190610b67565b5b509050610b909190610b94565b5090565b5b80821115610bad576000816000905550600101610b95565b5090565b6000604051905090565b600080fd5b600080fd5b60007fffffffff0000000000000000000000000000000000000000000000000000000082169050919050565b610bfa81610bc5565b8114610c0557600080fd5b50565b600081359050610c1781610bf1565b92915050565b600060208284031215610c3357610c32610bbb565b5b6000610c4184828501610c08565b91505092915050565b60008115159050919050565b610c5f81610c4a565b82525050565b6000602082019050610c7a6000830184610c56565b92915050565b600081519050919050565b600082825260208201905092915050565b60005b83811015610cba578082015181840152602081019050610c9f565b83811115610cc9576000848401525b50505050565b6000601f19601f8301169050919050565b6000610ceb82610c80565b610cf58185610c8b565b9350610d05818560208601610c9c565b610d0e81610ccf565b840191505092915050565b60006020820190508181036000830152610d338184610ce0565b905092915050565b6000819050919050565b610d4e81610d3b565b82525050565b6000602082019050610d696000830184610d45565b92915050565b600073ffffffffffffffffffffffffffffffffffffffff82169050919050565b6000610d9a82610d6f565b9050919050565b610daa81610d8f565b8114610db557600080fd5b50565b600081359050610dc781610da1565b92915050565b610dd681610d3b565b8114610de157600080fd5b50565b600081359050610df381610dcd565b92915050565b60008060408385031215610e1057610e0f610bbb565b5b6000610e1e85828601610db8565b9250506020610e2f85828601610de4565b9150509250929050565b600060208284031215610e4f57610e4e610bbb565b5b6000610e5d84828501610de4565b91505092915050565b610e6f81610d8f565b82525050565b6000602082019050610e8a6000830184610e66565b92915050565b600060208284031215610ea657610ea5610bbb565b5b6000610eb484828501610db8565b91505092915050565b600080fd5b600080fd5b7f4e487b7100000000000000000000000000000000000000000000000000000000600052604160045260246000fd5b610eff82610ccf565b810181811067ffffffffffffffff82111715610f1e57610f1d610ec7565b5b80604052505050565b6000610f31610bb1565b9050610f3d8282610ef6565b919050565b600067ffffffffffffffff821115610f5d57610f5c610ec7565b5b610f6682610ccf565b9050602081019050919050565b82818337600083830152505050565b6000610f95610f9084610f42565b610f27565b905082815260208101848484011115610fb157610fb0610ec2565b5b610fbc848285610f73565b509392505050565b600082601f830112610fd957610fd8610ebd565b5b8135610fe9848260208601610f82565b91505092915050565b60006020828403121561100857611007610bbb565b5b600082013567ffffffffffffffff81111561102657611025610bc0565b5b61103284828501610fc4565b91505092915050565b600081519050919050565b600082825260208201905092915050565b6000819050602082019050919050565b600082825260208201905092915050565b600061108382610c80565b61108d8185611067565b935061109d818560208601610c9c565b6110a681610ccf565b840191505092915050565b60006110bd8383611078565b905092915050565b6000602082019050919050565b60006110dd8261103b565b6110e78185611046565b9350836020820285016110f985611057565b8060005b85811015611135578484038952815161111685826110b1565b9450611121836110c5565b925060208a019950506001810190506110fd565b50829750879550505050505092915050565b6000602082019050818103600083015261116181846110d2565b905092915050565b7f4e487b7100000000000000000000000000000000000000000000000000000000600052602260045260246000fd5b600060028204905060018216806111b057607f821691505b6020821081036111c3576111c2611169565b5b50919050565b7f4e487b7100000000000000000000000000000000000000000000000000000000600052603260045260246000fd5b7f596f757220496e64657820496e76616c69640000000000000000000000000000600082015250565b600061122e601283610c8b565b9150611239826111f8565b602082019050919050565b6000602082019050818103600083015261125d81611221565b9050919050565b7f546869732041646472657373206e6f742041766961626c650000000000000000600082015250565b600061129a601883610c8b565b91506112a582611264565b602082019050919050565b600060208201905081810360008301526112c98161128d565b9050919050565b600081905092915050565b60006112e682610c80565b6112f081856112d0565b9350611300818560208601610c9c565b80840191505092915050565b600061131882846112db565b915081905092915050565b7f54686973204e66742055726c20546f6b656e20416c726561647920457869737460008201527f7300000000000000000000000000000000000000000000000000000000000000602082015250565b600061137f602183610c8b565b915061138a82611323565b604082019050919050565b600060208201905081810360008301526113ae81611372565b9050919050565b7f4e487b7100000000000000000000000000000000000000000000000000000000600052601160045260246000fd5b60006113ef82610d3b565b91506113fa83610d3b565b92508282101561140d5761140c6113b5565b5b828203905092915050565b7f43616e206e6f74206d696e7420746f2041646472657373205a65726f00000000600082015250565b600061144e601c83610c8b565b915061145982611418565b602082019050919050565b6000602082019050818103600083015261147d81611441565b9050919050565b7f546f6b656e20416c65726479204d696e74656400000000000000000000000000600082015250565b60006114ba601383610c8b565b91506114c582611484565b602082019050919050565b600060208201905081810360008301526114e9816114ad565b9050919050565b60006114fb82610d3b565b915061150683610d3b565b9250827fffffffffffffffffffffffffffffffffffffffffffffffffffffffffffffffff0382111561153b5761153a6113b5565b5b82820190509291505056fea2646970667358221220c22ea58f6a52de43677d0996ea0a675840d56aeb6c612b7bd195108143c3d8c464736f6c634300080e0033",
  "immutableReferences": {},
  "source": "// SPDX-License-Identifier: MIT\r\npragma solidity >=0.7.0 <8.10.0;\r\n\r\nimport \"./ERC721Enumerable.sol\";\r\nimport \"./ERC721Metadata.sol\";\r\n\r\ncontract AnimalNft is ERC721Metadata , ERC721Enumerable {\r\n\r\n    constructor() ERC721Metadata(\"Mohamed Elsherif\",\"SymbolNft\") {\r\n        _registerInterface(\r\n            bytes4(keccak256(\"mint(bytes4)\")) ^\r\n            bytes4(keccak256(\"getAnimalsNft(bytes4)\"))\r\n            );\r\n    }\r\n\r\n    string [] animalNft;\r\n    mapping(string=>bool) private _animalExits;\r\n\r\n\r\n    function mint(string memory _animalUrl) public {\r\n        require(!_animalExits[_animalUrl],\"This Nft Url Token Already Exists\");\r\n\r\n        animalNft.push(_animalUrl);\r\n        uint256 _id = animalNft.length - 1; \r\n        _animalExits[_animalUrl] = true;\r\n        _mint(msg.sender, _id);\r\n    }\r\n\r\n\r\n    function getAnimalsNft() public view returns(string [] memory){\r\n        return animalNft;\r\n    }\r\n}",
  "sourcePath": "C:\\animals_nft_app\\contracts\\AnimalsNft.sol",
  "compiler": {
    "name": "solc",
    "version": "0.8.14+commit.80d49f37.Emscripten.clang"
  },
  "schemaVersion": "3.4.7",
  "updatedAt": "2022-07-14T03:16:30.741Z",
  "networkType": "ethereum",
  "devdoc": {
    "kind": "dev",
    "methods": {},
    "version": 1
  },
  "userdoc": {
    "kind": "user",
    "methods": {},
    "version": 1
  }
}