{
  "contractName": "ERC165",
  "abi": [
    {
      "inputs": [
        {
          "internalType": "bytes4",
          "name": "interfaceId_",
          "type": "bytes4"
        }
      ],
      "name": "supportsInterface",
      "outputs": [
        {
          "internalType": "bool",
          "name": "",
          "type": "bool"
        }
      ],
      "stateMutability": "view",
      "type": "function"
    }
  ],
  "bytecode": "0x608060405234801561001057600080fd5b506101bd806100206000396000f3fe608060405234801561001057600080fd5b506004361061002b5760003560e01c806301ffc9a714610030575b600080fd5b61004a60048036038101906100459190610124565b610060565b604051610057919061016c565b60405180910390f35b6000806000837bffffffffffffffffffffffffffffffffffffffffffffffffffffffff19167bffffffffffffffffffffffffffffffffffffffffffffffffffffffff1916815260200190815260200160002060009054906101000a900460ff169050919050565b600080fd5b60007fffffffff0000000000000000000000000000000000000000000000000000000082169050919050565b610101816100cc565b811461010c57600080fd5b50565b60008135905061011e816100f8565b92915050565b60006020828403121561013a576101396100c7565b5b60006101488482850161010f565b91505092915050565b60008115159050919050565b61016681610151565b82525050565b6000602082019050610181600083018461015d565b9291505056fea264697066735822122071cb058be751f53de0098de1ccab326b0e72e2cdd428e980d0b25a24fdff13d864736f6c634300080e0033",
  "immutableReferences": {},
  "source": "// SPDX-License-Identifier: MIT\r\npragma solidity >=0.7.0 <8.10.0;\r\n\r\nimport \"./interfaces/IERC165.sol\";\r\n\r\n\r\ncontract ERC165 is IERC165 {\r\n\r\n    mapping(bytes4=>bool) private _supportedInterfaces;\r\n\r\n    function supportsInterface(bytes4 interfaceId_) external view returns(bool) {\r\n        return _supportedInterfaces[interfaceId_];\r\n    }\r\n\r\n    function _registerInterface(bytes4 interfaceId_) internal {\r\n        require(interfaceId_ != 0xffffffff,\"Invalid Interface ID\");\r\n\r\n        _supportedInterfaces[interfaceId_] = true;\r\n    }\r\n}",
  "sourcePath": "C:\\animals_nft_app\\contracts\\ERC165.sol",
  "compiler": {
    "name": "solc",
    "version": "0.8.14+commit.80d49f37.Emscripten.clang"
  },
  "schemaVersion": "3.4.7",
  "updatedAt": "2022-07-14T03:16:29.045Z",
  "devdoc": {
    "kind": "dev",
    "methods": {},
    "version": 1
  },
  "userdoc": {
    "kind": "user",
    "methods": {},
    "version": 1
  }
}