{
  "contractName": "ERC721Enumerable",
  "abi": [
    {
      "inputs": [],
      "stateMutability": "nonpayable",
      "type": "constructor"
    },
    {
      "anonymous": false,
      "inputs": [
        {
          "indexed": true,
          "internalType": "address",
          "name": "from",
          "type": "address"
        },
        {
          "indexed": true,
          "internalType": "address",
          "name": "to",
          "type": "address"
        },
        {
          "indexed": true,
          "internalType": "uint256",
          "name": "tokenId",
          "type": "uint256"
        }
      ],
      "name": "Transfer",
      "type": "event"
    },
    {
      "inputs": [
        {
          "internalType": "address",
          "name": "owner_",
          "type": "address"
        }
      ],
      "name": "balanceOf",
      "outputs": [
        {
          "internalType": "uint256",
          "name": "",
          "type": "uint256"
        }
      ],
      "stateMutability": "view",
      "type": "function"
    },
    {
      "inputs": [
        {
          "internalType": "uint256",
          "name": "tokenId_",
          "type": "uint256"
        }
      ],
      "name": "ownerOf",
      "outputs": [
        {
          "internalType": "address",
          "name": "",
          "type": "address"
        }
      ],
      "stateMutability": "view",
      "type": "function"
    },
    {
      "inputs": [
        {
          "internalType": "bytes4",
          "name": "interfaceId_",
          "type": "bytes4"
        }
      ],
      "name": "supportsInterface",
      "outputs": [
        {
          "internalType": "bool",
          "name": "",
          "type": "bool"
        }
      ],
      "stateMutability": "view",
      "type": "function"
    },
    {
      "inputs": [],
      "name": "totalSupply",
      "outputs": [
        {
          "internalType": "uint256",
          "name": "",
          "type": "uint256"
        }
      ],
      "stateMutability": "view",
      "type": "function"
    },
    {
      "inputs": [
        {
          "internalType": "uint256",
          "name": "index_",
          "type": "uint256"
        }
      ],
      "name": "tokenByIndex",
      "outputs": [
        {
          "internalType": "uint256",
          "name": "",
          "type": "uint256"
        }
      ],
      "stateMutability": "view",
      "type": "function"
    },
    {
      "inputs": [
        {
          "internalType": "address",
          "name": "owner_",
          "type": "address"
        },
        {
          "internalType": "uint256",
          "name": "index_",
          "type": "uint256"
        }
      ],
      "name": "tokenOfOwnerByIndex",
      "outputs": [
        {
          "internalType": "uint256",
          "name": "",
          "type": "uint256"
        }
      ],
      "stateMutability": "view",
      "type": "function"
    }
  ],
  "bytecode": "0x608060405234801561001057600080fd5b506100847f788a4fc15f9fd369182fc5f237bcaed2191ad11e7df20b6abe14d3e0b1f3211d7f3a6eb71757dfc6e784c1459d26270140c2c147d95ca985c80026fc5301c3eca17f8a7e378434598edc36d108689a030cbc9d7d465de4f74c71bae1028eed6a881b18186100da60201b60201c565b6100d57f6da5e1284143cdd2d15038a59bde3be031250f00291d64494c12d967b3a4e0c37fc53637662700e6c65104059db8bba34439e0c32483ab7c34e3ccae52c7395495186100da60201b60201c565b61022b565b63ffffffff60e01b817bffffffffffffffffffffffffffffffffffffffffffffffffffffffff191603610142576040517f08c379a00000000000000000000000000000000000000000000000000000000081526004016101399061020b565b60405180910390fd5b6001600080837bffffffffffffffffffffffffffffffffffffffffffffffffffffffff19167bffffffffffffffffffffffffffffffffffffffffffffffffffffffff1916815260200190815260200160002060006101000a81548160ff02191690831515021790555050565b600082825260208201905092915050565b7f496e76616c696420496e74657266616365204944000000000000000000000000600082015250565b60006101f56014836101ae565b9150610200826101bf565b602082019050919050565b60006020820190508181036000830152610224816101e8565b9050919050565b6107fe8061023a6000396000f3fe608060405234801561001057600080fd5b50600436106100625760003560e01c806301ffc9a71461006757806318160ddd146100975780632f745c59146100b55780634f6ccce7146100e55780636352211e1461011557806370a0823114610145575b600080fd5b610081600480360381019061007c91906104cb565b610175565b60405161008e9190610513565b60405180910390f35b61009f6101dc565b6040516100ac9190610547565b60405180910390f35b6100cf60048036038101906100ca91906105ec565b6101e9565b6040516100dc9190610547565b60405180910390f35b6100ff60048036038101906100fa919061062c565b61024f565b60405161010c9190610547565b60405180910390f35b61012f600480360381019061012a919061062c565b6102c0565b60405161013c9190610668565b60405180910390f35b61015f600480360381019061015a9190610683565b610346565b60405161016c9190610547565b60405180910390f35b6000806000837bffffffffffffffffffffffffffffffffffffffffffffffffffffffff19167bffffffffffffffffffffffffffffffffffffffffffffffffffffffff1916815260200190815260200160002060009054906101000a900460ff169050919050565b6000600380549050905090565b6000600460008473ffffffffffffffffffffffffffffffffffffffff1673ffffffffffffffffffffffffffffffffffffffff168152602001908152602001600020828154811061023c5761023b6106b0565b5b9060005260206000200154905092915050565b60006102596101dc565b821061029a576040517f08c379a00000000000000000000000000000000000000000000000000000000081526004016102919061073c565b60405180910390fd5b600382815481106102ae576102ad6106b0565b5b90600052602060002001549050919050565b60006102cb826103fd565b1561030b576040517f08c379a0000000000000000000000000000000000000000000000000000000008152600401610302906107a8565b60405180910390fd5b6001600083815260200190815260200160002060009054906101000a900473ffffffffffffffffffffffffffffffffffffffff169050919050565b60008073ffffffffffffffffffffffffffffffffffffffff168273ffffffffffffffffffffffffffffffffffffffff16036103b6576040517f08c379a00000000000000000000000000000000000000000000000000000000081526004016103ad906107a8565b60405180910390fd5b600260008373ffffffffffffffffffffffffffffffffffffffff1673ffffffffffffffffffffffffffffffffffffffff168152602001908152602001600020549050919050565b6000806001600084815260200190815260200160002060009054906101000a900473ffffffffffffffffffffffffffffffffffffffff169050600073ffffffffffffffffffffffffffffffffffffffff168173ffffffffffffffffffffffffffffffffffffffff1614915050919050565b600080fd5b60007fffffffff0000000000000000000000000000000000000000000000000000000082169050919050565b6104a881610473565b81146104b357600080fd5b50565b6000813590506104c58161049f565b92915050565b6000602082840312156104e1576104e061046e565b5b60006104ef848285016104b6565b91505092915050565b60008115159050919050565b61050d816104f8565b82525050565b60006020820190506105286000830184610504565b92915050565b6000819050919050565b6105418161052e565b82525050565b600060208201905061055c6000830184610538565b92915050565b600073ffffffffffffffffffffffffffffffffffffffff82169050919050565b600061058d82610562565b9050919050565b61059d81610582565b81146105a857600080fd5b50565b6000813590506105ba81610594565b92915050565b6105c98161052e565b81146105d457600080fd5b50565b6000813590506105e6816105c0565b92915050565b600080604083850312156106035761060261046e565b5b6000610611858286016105ab565b9250506020610622858286016105d7565b9150509250929050565b6000602082840312156106425761064161046e565b5b6000610650848285016105d7565b91505092915050565b61066281610582565b82525050565b600060208201905061067d6000830184610659565b92915050565b6000602082840312156106995761069861046e565b5b60006106a7848285016105ab565b91505092915050565b7f4e487b7100000000000000000000000000000000000000000000000000000000600052603260045260246000fd5b600082825260208201905092915050565b7f596f757220496e64657820496e76616c69640000000000000000000000000000600082015250565b60006107266012836106df565b9150610731826106f0565b602082019050919050565b6000602082019050818103600083015261075581610719565b9050919050565b7f546869732041646472657373206e6f742041766961626c650000000000000000600082015250565b60006107926018836106df565b915061079d8261075c565b602082019050919050565b600060208201905081810360008301526107c181610785565b905091905056fea2646970667358221220c016938b0e550865b65e9b71dbc14f3a079378fac1962040dca5b3433621ee6264736f6c634300080e0033",
  "immutableReferences": {},
  "source": "// SPDX-License-Identifier: MIT\r\npragma solidity >=0.7.0 <8.10.0;\r\n\r\nimport \"./ERC721.sol\";\r\nimport \"./interfaces/IERC721Enumerable.sol\";\r\n\r\n\r\ncontract ERC721Enumerable is ERC721 , IERC721Enumerable {\r\n    uint256 [] private _allTokens;\r\n\r\n     constructor() {\r\n        _registerInterface(\r\n            bytes4(keccak256(\"totalSupply(bytes4)\")) ^\r\n            bytes4(keccak256(\"tokenByIndex(bytes4)\"))\r\n            );\r\n    }\r\n\r\n\r\n    function totalSupply() public view returns(uint256) {\r\n        return _allTokens.length;\r\n    }\r\n    \r\n    function tokenByIndex(uint256 index_) public view returns(uint256) {\r\n        require(index_ < totalSupply(),\"Your Index Invalid\");\r\n        return _allTokens[index_];\r\n    }\r\n\r\n    function _addTokenToTotalSupply(uint256 tokenId_) private {\r\n        _allTokens.push(tokenId_);\r\n    }\r\n    \r\n\r\n    mapping(address=>uint256[]) private _ownedTokens;\r\n    mapping(uint256=>uint256) private _allTokensByIndex;\r\n    mapping(uint256=>uint256) private _ownedTokensIndex;\r\n\r\n\r\n    function _addTokenToAll(uint256 tokenId_) private {\r\n        _allTokensByIndex[tokenId_] = _allTokens.length;\r\n        _allTokens.push(tokenId_);\r\n    }\r\n\r\n    function _addTokenToTheOwners(address to_ , uint256 tokenId_) private {\r\n        _ownedTokensIndex[tokenId_] = _ownedTokens[to_].length;\r\n        _ownedTokens[to_].push(tokenId_);\r\n    }\r\n\r\n    function tokenOfOwnerByIndex(address owner_ , uint256 index_) external view returns(uint256) {\r\n        return _ownedTokens[owner_][index_];\r\n    }\r\n\r\n\r\n       function _mint(address to,uint256 tokenId)internal override(ERC721) {\r\n        super._mint(to,tokenId);\r\n        _addTokenToAll(tokenId);\r\n        _addTokenToTheOwners(to, tokenId);   \r\n    } \r\n    \r\n\r\n    \r\n}",
  "sourcePath": "C:\\animals_nft_app\\contracts\\ERC721Enumerable.sol",
  "compiler": {
    "name": "solc",
    "version": "0.8.14+commit.80d49f37.Emscripten.clang"
  },
  "schemaVersion": "3.4.7",
  "updatedAt": "2022-07-14T03:16:29.055Z",
  "devdoc": {
    "kind": "dev",
    "methods": {},
    "version": 1
  },
  "userdoc": {
    "kind": "user",
    "methods": {},
    "version": 1
  }
}