{
  "contractName": "ERC721",
  "abi": [
    {
      "inputs": [],
      "stateMutability": "nonpayable",
      "type": "constructor"
    },
    {
      "anonymous": false,
      "inputs": [
        {
          "indexed": true,
          "internalType": "address",
          "name": "from",
          "type": "address"
        },
        {
          "indexed": true,
          "internalType": "address",
          "name": "to",
          "type": "address"
        },
        {
          "indexed": true,
          "internalType": "uint256",
          "name": "tokenId",
          "type": "uint256"
        }
      ],
      "name": "Transfer",
      "type": "event"
    },
    {
      "inputs": [
        {
          "internalType": "bytes4",
          "name": "interfaceId_",
          "type": "bytes4"
        }
      ],
      "name": "supportsInterface",
      "outputs": [
        {
          "internalType": "bool",
          "name": "",
          "type": "bool"
        }
      ],
      "stateMutability": "view",
      "type": "function"
    },
    {
      "inputs": [
        {
          "internalType": "address",
          "name": "owner_",
          "type": "address"
        }
      ],
      "name": "balanceOf",
      "outputs": [
        {
          "internalType": "uint256",
          "name": "",
          "type": "uint256"
        }
      ],
      "stateMutability": "view",
      "type": "function"
    },
    {
      "inputs": [
        {
          "internalType": "uint256",
          "name": "tokenId_",
          "type": "uint256"
        }
      ],
      "name": "ownerOf",
      "outputs": [
        {
          "internalType": "address",
          "name": "",
          "type": "address"
        }
      ],
      "stateMutability": "view",
      "type": "function"
    }
  ],
  "bytecode": "0x608060405234801561001057600080fd5b506100847f788a4fc15f9fd369182fc5f237bcaed2191ad11e7df20b6abe14d3e0b1f3211d7f3a6eb71757dfc6e784c1459d26270140c2c147d95ca985c80026fc5301c3eca17f8a7e378434598edc36d108689a030cbc9d7d465de4f74c71bae1028eed6a881b181861008960201b60201c565b6101da565b63ffffffff60e01b817bffffffffffffffffffffffffffffffffffffffffffffffffffffffff1916036100f1576040517f08c379a00000000000000000000000000000000000000000000000000000000081526004016100e8906101ba565b60405180910390fd5b6001600080837bffffffffffffffffffffffffffffffffffffffffffffffffffffffff19167bffffffffffffffffffffffffffffffffffffffffffffffffffffffff1916815260200190815260200160002060006101000a81548160ff02191690831515021790555050565b600082825260208201905092915050565b7f496e76616c696420496e74657266616365204944000000000000000000000000600082015250565b60006101a460148361015d565b91506101af8261016e565b602082019050919050565b600060208201905081810360008301526101d381610197565b9050919050565b6105a0806101e96000396000f3fe608060405234801561001057600080fd5b50600436106100415760003560e01c806301ffc9a7146100465780636352211e1461007657806370a08231146100a6575b600080fd5b610060600480360381019061005b9190610348565b6100d6565b60405161006d9190610390565b60405180910390f35b610090600480360381019061008b91906103e1565b61013d565b60405161009d919061044f565b60405180910390f35b6100c060048036038101906100bb9190610496565b6101c3565b6040516100cd91906104d2565b60405180910390f35b6000806000837bffffffffffffffffffffffffffffffffffffffffffffffffffffffff19167bffffffffffffffffffffffffffffffffffffffffffffffffffffffff1916815260200190815260200160002060009054906101000a900460ff169050919050565b60006101488261027a565b15610188576040517f08c379a000000000000000000000000000000000000000000000000000000000815260040161017f9061054a565b60405180910390fd5b6001600083815260200190815260200160002060009054906101000a900473ffffffffffffffffffffffffffffffffffffffff169050919050565b60008073ffffffffffffffffffffffffffffffffffffffff168273ffffffffffffffffffffffffffffffffffffffff1603610233576040517f08c379a000000000000000000000000000000000000000000000000000000000815260040161022a9061054a565b60405180910390fd5b600260008373ffffffffffffffffffffffffffffffffffffffff1673ffffffffffffffffffffffffffffffffffffffff168152602001908152602001600020549050919050565b6000806001600084815260200190815260200160002060009054906101000a900473ffffffffffffffffffffffffffffffffffffffff169050600073ffffffffffffffffffffffffffffffffffffffff168173ffffffffffffffffffffffffffffffffffffffff1614915050919050565b600080fd5b60007fffffffff0000000000000000000000000000000000000000000000000000000082169050919050565b610325816102f0565b811461033057600080fd5b50565b6000813590506103428161031c565b92915050565b60006020828403121561035e5761035d6102eb565b5b600061036c84828501610333565b91505092915050565b60008115159050919050565b61038a81610375565b82525050565b60006020820190506103a56000830184610381565b92915050565b6000819050919050565b6103be816103ab565b81146103c957600080fd5b50565b6000813590506103db816103b5565b92915050565b6000602082840312156103f7576103f66102eb565b5b6000610405848285016103cc565b91505092915050565b600073ffffffffffffffffffffffffffffffffffffffff82169050919050565b60006104398261040e565b9050919050565b6104498161042e565b82525050565b60006020820190506104646000830184610440565b92915050565b6104738161042e565b811461047e57600080fd5b50565b6000813590506104908161046a565b92915050565b6000602082840312156104ac576104ab6102eb565b5b60006104ba84828501610481565b91505092915050565b6104cc816103ab565b82525050565b60006020820190506104e760008301846104c3565b92915050565b600082825260208201905092915050565b7f546869732041646472657373206e6f742041766961626c650000000000000000600082015250565b60006105346018836104ed565b915061053f826104fe565b602082019050919050565b6000602082019050818103600083015261056381610527565b905091905056fea264697066735822122006db8f28202a37a6f3b57270449be9f0cb5d3cc99cd8a7fdfcd406bb31d46f8664736f6c634300080e0033",
  "immutableReferences": {},
  "source": "// SPDX-License-Identifier: MIT\r\npragma solidity >=0.7.0 <8.10.0;\r\n\r\nimport \"./interfaces/IERC721.sol\";\r\nimport \"./ERC165.sol\";\r\n\r\n\r\ncontract ERC721 is IERC721 , ERC165{\r\n    mapping (uint256=>address) private _tokenOwners;\r\n    mapping (address=>uint256) private _tokenOwnerOwned;\r\n\r\n    constructor() {\r\n        _registerInterface(\r\n            bytes4(keccak256(\"balanceOf(bytes4)\")) ^\r\n            bytes4(keccak256(\"ownerOf(bytes4)\")) ^\r\n            bytes4(keccak256(\"_mint(bytes4)\"))\r\n            );\r\n    }\r\n\r\n    event Transfer(address indexed from , address indexed to , uint256 indexed tokenId);\r\n    \r\n    function _exits(uint256 tokenId_) internal view returns(bool) {\r\n        address _owner = _tokenOwners[tokenId_];\r\n        return _owner == address(0);\r\n    }\r\n\r\n\r\n    function balanceOf(address owner_) external override view returns(uint256) { \r\n        require(owner_ != address(0) , \"This Address not Aviable\");\r\n        return _tokenOwnerOwned[owner_];\r\n    }\r\n\r\n\r\n    function ownerOf(uint256 tokenId_) external override view returns(address){\r\n        require(!_exits(tokenId_) , \"This Address not Aviable\");\r\n        return _tokenOwners[tokenId_];\r\n    }\r\n\r\n    \r\n    function _mint(address to , uint256 tokenId) internal virtual{\r\n        require(to != address(0),\"Can not mint to Address Zero\");\r\n        require(_exits(tokenId),\"Token Alerdy Minted\");\r\n\r\n        _tokenOwners[tokenId] = to;\r\n        _tokenOwnerOwned[to] += 1;\r\n\r\n        emit Transfer(address(0), to, tokenId);\r\n    }\r\n\r\n\r\n}",
  "sourcePath": "C:\\animals_nft_app\\contracts\\ERC721.sol",
  "compiler": {
    "name": "solc",
    "version": "0.8.14+commit.80d49f37.Emscripten.clang"
  },
  "schemaVersion": "3.4.7",
  "updatedAt": "2022-07-14T03:16:29.050Z",
  "devdoc": {
    "kind": "dev",
    "methods": {},
    "version": 1
  },
  "userdoc": {
    "kind": "user",
    "methods": {},
    "version": 1
  }
}